{
  "_format": "hh-sol-artifact-1",
  "contractName": "RegistrarController",
  "address": "0x926eD22328a13CEEA14B2A3Fe68e2DFA512C58Dd",
  "sourceName": "contracts/controller/RegistrarController.sol",
  "abi": [
    {
      "inputs": [],
      "stateMutability": "nonpayable",
      "type": "constructor"
    },
    {
      "inputs": [
        {
          "internalType": "uint256",
          "name": "identifier",
          "type": "uint256"
        },
        {
          "internalType": "uint256",
          "name": "duration",
          "type": "uint256"
        }
      ],
      "name": "DurationTooShort",
      "type": "error"
    },
    {
      "inputs": [
        {
          "internalType": "uint256",
          "name": "identifier",
          "type": "uint256"
        },
        {
          "internalType": "string",
          "name": "name",
          "type": "string"
        }
      ],
      "name": "NameNotAvailable",
      "type": "error"
    },
    {
      "inputs": [],
      "name": "NotQualifiedRegister",
      "type": "error"
    },
    {
      "inputs": [
        {
          "internalType": "uint256",
          "name": "realPrice",
          "type": "uint256"
        }
      ],
      "name": "SimulatePrice",
      "type": "error"
    },
    {
      "anonymous": false,
      "inputs": [
        {
          "indexed": false,
          "internalType": "address",
          "name": "previousAdmin",
          "type": "address"
        },
        {
          "indexed": false,
          "internalType": "address",
          "name": "newAdmin",
          "type": "address"
        }
      ],
      "name": "AdminChanged",
      "type": "event"
    },
    {
      "anonymous": false,
      "inputs": [
        {
          "indexed": true,
          "internalType": "address",
          "name": "beacon",
          "type": "address"
        }
      ],
      "name": "BeaconUpgraded",
      "type": "event"
    },
    {
      "anonymous": false,
      "inputs": [
        {
          "indexed": false,
          "internalType": "uint8",
          "name": "version",
          "type": "uint8"
        }
      ],
      "name": "Initialized",
      "type": "event"
    },
    {
      "anonymous": false,
      "inputs": [
        {
          "indexed": false,
          "internalType": "uint256",
          "name": "identifier",
          "type": "uint256"
        },
        {
          "indexed": false,
          "internalType": "string",
          "name": "name",
          "type": "string"
        },
        {
          "indexed": true,
          "internalType": "bytes32",
          "name": "label",
          "type": "bytes32"
        },
        {
          "indexed": true,
          "internalType": "address",
          "name": "owner",
          "type": "address"
        },
        {
          "indexed": false,
          "internalType": "uint256",
          "name": "baseCost",
          "type": "uint256"
        },
        {
          "indexed": false,
          "internalType": "uint256",
          "name": "expires",
          "type": "uint256"
        }
      ],
      "name": "NameRegistered",
      "type": "event"
    },
    {
      "anonymous": false,
      "inputs": [
        {
          "indexed": false,
          "internalType": "uint256",
          "name": "identifier",
          "type": "uint256"
        },
        {
          "indexed": false,
          "internalType": "string",
          "name": "name",
          "type": "string"
        },
        {
          "indexed": true,
          "internalType": "bytes32",
          "name": "label",
          "type": "bytes32"
        },
        {
          "indexed": false,
          "internalType": "uint256",
          "name": "cost",
          "type": "uint256"
        },
        {
          "indexed": false,
          "internalType": "uint256",
          "name": "expires",
          "type": "uint256"
        }
      ],
      "name": "NameRenewed",
      "type": "event"
    },
    {
      "anonymous": false,
      "inputs": [
        {
          "indexed": false,
          "internalType": "uint256",
          "name": "identifier",
          "type": "uint256"
        },
        {
          "indexed": false,
          "internalType": "bool",
          "name": "hasMintCap",
          "type": "bool"
        }
      ],
      "name": "SetHasMintCap",
      "type": "event"
    },
    {
      "anonymous": false,
      "inputs": [
        {
          "indexed": false,
          "internalType": "uint256",
          "name": "identifier",
          "type": "uint256"
        },
        {
          "indexed": false,
          "internalType": "uint256",
          "name": "maxDomainLength",
          "type": "uint256"
        }
      ],
      "name": "SetMaxDomainLength",
      "type": "event"
    },
    {
      "anonymous": false,
      "inputs": [
        {
          "indexed": false,
          "internalType": "uint256",
          "name": "identifier",
          "type": "uint256"
        },
        {
          "indexed": false,
          "internalType": "uint256",
          "name": "minDomainLength",
          "type": "uint256"
        }
      ],
      "name": "SetMinDomainLength",
      "type": "event"
    },
    {
      "anonymous": false,
      "inputs": [
        {
          "indexed": false,
          "internalType": "uint256",
          "name": "identifier",
          "type": "uint256"
        },
        {
          "indexed": false,
          "internalType": "uint256",
          "name": "minRegistrationDuration",
          "type": "uint256"
        }
      ],
      "name": "SetMinRegistrationDuration",
      "type": "event"
    },
    {
      "anonymous": false,
      "inputs": [
        {
          "indexed": false,
          "internalType": "uint256",
          "name": "identifier",
          "type": "uint256"
        },
        {
          "indexed": false,
          "internalType": "uint256",
          "name": "minRenewDuration",
          "type": "uint256"
        }
      ],
      "name": "SetMinRenewDuration",
      "type": "event"
    },
    {
      "anonymous": false,
      "inputs": [
        {
          "indexed": false,
          "internalType": "uint256",
          "name": "identifier",
          "type": "uint256"
        },
        {
          "indexed": false,
          "internalType": "uint256",
          "name": "mintCap",
          "type": "uint256"
        }
      ],
      "name": "SetMintCap",
      "type": "event"
    },
    {
      "anonymous": false,
      "inputs": [
        {
          "indexed": false,
          "internalType": "uint256",
          "name": "identifier",
          "type": "uint256"
        },
        {
          "indexed": false,
          "internalType": "address",
          "name": "hook",
          "type": "address"
        }
      ],
      "name": "SetPointHook",
      "type": "event"
    },
    {
      "anonymous": false,
      "inputs": [
        {
          "indexed": false,
          "internalType": "uint256",
          "name": "identifier",
          "type": "uint256"
        },
        {
          "indexed": false,
          "internalType": "address",
          "name": "hook",
          "type": "address"
        }
      ],
      "name": "SetPriceHook",
      "type": "event"
    },
    {
      "anonymous": false,
      "inputs": [
        {
          "indexed": false,
          "internalType": "uint256",
          "name": "identifier",
          "type": "uint256"
        },
        {
          "indexed": false,
          "internalType": "address",
          "name": "hook",
          "type": "address"
        }
      ],
      "name": "SetQualificationHook",
      "type": "event"
    },
    {
      "anonymous": false,
      "inputs": [
        {
          "indexed": false,
          "internalType": "uint256",
          "name": "identifier",
          "type": "uint256"
        },
        {
          "indexed": false,
          "internalType": "address",
          "name": "hook",
          "type": "address"
        }
      ],
      "name": "SetRenewPointHook",
      "type": "event"
    },
    {
      "anonymous": false,
      "inputs": [
        {
          "indexed": false,
          "internalType": "uint256",
          "name": "identifier",
          "type": "uint256"
        },
        {
          "indexed": false,
          "internalType": "address",
          "name": "hook",
          "type": "address"
        }
      ],
      "name": "SetRenewPriceHook",
      "type": "event"
    },
    {
      "anonymous": false,
      "inputs": [
        {
          "indexed": false,
          "internalType": "uint256",
          "name": "identifier",
          "type": "uint256"
        },
        {
          "indexed": false,
          "internalType": "address",
          "name": "hook",
          "type": "address"
        }
      ],
      "name": "SetRenewRewardHook",
      "type": "event"
    },
    {
      "anonymous": false,
      "inputs": [
        {
          "indexed": false,
          "internalType": "uint256",
          "name": "identifier",
          "type": "uint256"
        },
        {
          "indexed": false,
          "internalType": "address",
          "name": "hook",
          "type": "address"
        }
      ],
      "name": "SetRewardHook",
      "type": "event"
    },
    {
      "anonymous": false,
      "inputs": [
        {
          "indexed": false,
          "internalType": "uint256",
          "name": "identifier",
          "type": "uint256"
        },
        {
          "indexed": false,
          "internalType": "address",
          "name": "base",
          "type": "address"
        }
      ],
      "name": "SetTldBase",
      "type": "event"
    },
    {
      "anonymous": false,
      "inputs": [
        {
          "indexed": false,
          "internalType": "uint256",
          "name": "identifier",
          "type": "uint256"
        },
        {
          "indexed": false,
          "internalType": "address",
          "name": "priceOracle",
          "type": "address"
        }
      ],
      "name": "SetTldPriceOracle",
      "type": "event"
    },
    {
      "anonymous": false,
      "inputs": [
        {
          "indexed": true,
          "internalType": "address",
          "name": "implementation",
          "type": "address"
        }
      ],
      "name": "Upgraded",
      "type": "event"
    },
    {
      "inputs": [
        {
          "internalType": "uint256",
          "name": "identifier",
          "type": "uint256"
        },
        {
          "internalType": "string",
          "name": "name",
          "type": "string"
        }
      ],
      "name": "available",
      "outputs": [
        {
          "internalType": "bool",
          "name": "",
          "type": "bool"
        }
      ],
      "stateMutability": "view",
      "type": "function"
    },
    {
      "inputs": [
        {
          "internalType": "uint256",
          "name": "identifier",
          "type": "uint256"
        },
        {
          "internalType": "string[]",
          "name": "names",
          "type": "string[]"
        },
        {
          "internalType": "address",
          "name": "owner",
          "type": "address"
        },
        {
          "internalType": "uint256",
          "name": "duration",
          "type": "uint256"
        },
        {
          "internalType": "address",
          "name": "resolver",
          "type": "address"
        },
        {
          "internalType": "bool",
          "name": "setTldName",
          "type": "bool"
        },
        {
          "internalType": "bytes[]",
          "name": "extraData",
          "type": "bytes[]"
        }
      ],
      "name": "bulkRegister",
      "outputs": [
        {
          "internalType": "uint256",
          "name": "",
          "type": "uint256"
        }
      ],
      "stateMutability": "payable",
      "type": "function"
    },
    {
      "inputs": [
        {
          "internalType": "uint256",
          "name": "identifier",
          "type": "uint256"
        },
        {
          "internalType": "string[]",
          "name": "names",
          "type": "string[]"
        },
        {
          "internalType": "address",
          "name": "owner",
          "type": "address"
        },
        {
          "internalType": "uint256",
          "name": "duration",
          "type": "uint256"
        },
        {
          "internalType": "address",
          "name": "resolver",
          "type": "address"
        },
        {
          "internalType": "bool",
          "name": "setTldName",
          "type": "bool"
        },
        {
          "internalType": "bytes[]",
          "name": "extraData",
          "type": "bytes[]"
        }
      ],
      "name": "bulkRegisterSimulate",
      "outputs": [
        {
          "internalType": "uint256",
          "name": "",
          "type": "uint256"
        }
      ],
      "stateMutability": "payable",
      "type": "function"
    },
    {
      "inputs": [
        {
          "internalType": "uint256",
          "name": "identifier",
          "type": "uint256"
        },
        {
          "internalType": "string[]",
          "name": "names",
          "type": "string[]"
        },
        {
          "internalType": "uint256",
          "name": "duration",
          "type": "uint256"
        },
        {
          "internalType": "bytes[]",
          "name": "extraData",
          "type": "bytes[]"
        }
      ],
      "name": "bulkRenew",
      "outputs": [
        {
          "internalType": "uint256",
          "name": "",
          "type": "uint256"
        }
      ],
      "stateMutability": "payable",
      "type": "function"
    },
    {
      "inputs": [
        {
          "internalType": "uint256",
          "name": "identifier",
          "type": "uint256"
        },
        {
          "internalType": "string[]",
          "name": "names",
          "type": "string[]"
        },
        {
          "internalType": "uint256",
          "name": "duration",
          "type": "uint256"
        },
        {
          "internalType": "address",
          "name": "initiatedBy",
          "type": "address"
        },
        {
          "internalType": "bytes[]",
          "name": "extraData",
          "type": "bytes[]"
        }
      ],
      "name": "bulkRenewSimulate",
      "outputs": [
        {
          "internalType": "uint256",
          "name": "",
          "type": "uint256"
        }
      ],
      "stateMutability": "payable",
      "type": "function"
    },
    {
      "inputs": [
        {
          "internalType": "uint256",
          "name": "identifier",
          "type": "uint256"
        },
        {
          "internalType": "string[]",
          "name": "names",
          "type": "string[]"
        },
        {
          "internalType": "uint256",
          "name": "duration",
          "type": "uint256"
        }
      ],
      "name": "bulkRentPrice",
      "outputs": [
        {
          "internalType": "uint256",
          "name": "total",
          "type": "uint256"
        }
      ],
      "stateMutability": "view",
      "type": "function"
    },
    {
      "inputs": [],
      "name": "defaultPriceOracle",
      "outputs": [
        {
          "internalType": "contract IPriceOracle",
          "name": "",
          "type": "address"
        }
      ],
      "stateMutability": "view",
      "type": "function"
    },
    {
      "inputs": [
        {
          "internalType": "uint256",
          "name": "identifier",
          "type": "uint256"
        }
      ],
      "name": "getPriceOracle",
      "outputs": [
        {
          "internalType": "contract IPriceOracle",
          "name": "",
          "type": "address"
        }
      ],
      "stateMutability": "view",
      "type": "function"
    },
    {
      "inputs": [
        {
          "internalType": "contract ISANN",
          "name": "_sann",
          "type": "address"
        },
        {
          "internalType": "contract IPlatformConfig",
          "name": "_platformConfig",
          "type": "address"
        },
        {
          "internalType": "contract IPrepaidPlatformFee",
          "name": "_prepaidPlatformFee",
          "type": "address"
        },
        {
          "internalType": "contract IPriceOracle",
          "name": "_priceOracle",
          "type": "address"
        },
        {
          "internalType": "contract IReverseRegistrar",
          "name": "_reverseRegistrar",
          "type": "address"
        }
      ],
      "name": "initialize",
      "outputs": [],
      "stateMutability": "nonpayable",
      "type": "function"
    },
    {
      "inputs": [],
      "name": "platformConfig",
      "outputs": [
        {
          "internalType": "contract IPlatformConfig",
          "name": "",
          "type": "address"
        }
      ],
      "stateMutability": "view",
      "type": "function"
    },
    {
      "inputs": [],
      "name": "platformFeeBalance",
      "outputs": [
        {
          "internalType": "uint256",
          "name": "",
          "type": "uint256"
        }
      ],
      "stateMutability": "view",
      "type": "function"
    },
    {
      "inputs": [],
      "name": "prepaidPlatformFee",
      "outputs": [
        {
          "internalType": "contract IPrepaidPlatformFee",
          "name": "",
          "type": "address"
        }
      ],
      "stateMutability": "view",
      "type": "function"
    },
    {
      "inputs": [
        {
          "internalType": "uint256",
          "name": "identifier",
          "type": "uint256"
        },
        {
          "internalType": "string",
          "name": "_name",
          "type": "string"
        },
        {
          "internalType": "address",
          "name": "_buyer",
          "type": "address"
        },
        {
          "internalType": "uint256",
          "name": "_duration",
          "type": "uint256"
        },
        {
          "internalType": "bytes",
          "name": "_extraData",
          "type": "bytes"
        }
      ],
      "name": "priceAfterDiscount",
      "outputs": [
        {
          "internalType": "uint256",
          "name": "cost",
          "type": "uint256"
        }
      ],
      "stateMutability": "view",
      "type": "function"
    },
    {
      "inputs": [],
      "name": "proxiableUUID",
      "outputs": [
        {
          "internalType": "bytes32",
          "name": "",
          "type": "bytes32"
        }
      ],
      "stateMutability": "view",
      "type": "function"
    },
    {
      "inputs": [
        {
          "internalType": "address",
          "name": "_token",
          "type": "address"
        },
        {
          "internalType": "address",
          "name": "_to",
          "type": "address"
        },
        {
          "internalType": "uint256",
          "name": "_amount",
          "type": "uint256"
        }
      ],
      "name": "recoverFunds",
      "outputs": [],
      "stateMutability": "nonpayable",
      "type": "function"
    },
    {
      "inputs": [
        {
          "internalType": "uint256",
          "name": "identifier",
          "type": "uint256"
        },
        {
          "internalType": "string",
          "name": "name",
          "type": "string"
        },
        {
          "internalType": "uint256",
          "name": "duration",
          "type": "uint256"
        }
      ],
      "name": "rentPrice",
      "outputs": [
        {
          "components": [
            {
              "internalType": "uint256",
              "name": "base",
              "type": "uint256"
            },
            {
              "internalType": "uint256",
              "name": "premium",
              "type": "uint256"
            }
          ],
          "internalType": "struct IPriceOracle.Price",
          "name": "price",
          "type": "tuple"
        }
      ],
      "stateMutability": "view",
      "type": "function"
    },
    {
      "inputs": [
        {
          "internalType": "uint256",
          "name": "identifier",
          "type": "uint256"
        },
        {
          "internalType": "string",
          "name": "name",
          "type": "string"
        },
        {
          "internalType": "uint256",
          "name": "duration",
          "type": "uint256"
        }
      ],
      "name": "rentPriceInUSD",
      "outputs": [
        {
          "components": [
            {
              "internalType": "uint256",
              "name": "base",
              "type": "uint256"
            },
            {
              "internalType": "uint256",
              "name": "premium",
              "type": "uint256"
            }
          ],
          "internalType": "struct IPriceOracle.Price",
          "name": "price",
          "type": "tuple"
        }
      ],
      "stateMutability": "view",
      "type": "function"
    },
    {
      "inputs": [],
      "name": "reverseRegistrar",
      "outputs": [
        {
          "internalType": "contract IReverseRegistrar",
          "name": "",
          "type": "address"
        }
      ],
      "stateMutability": "view",
      "type": "function"
    },
    {
      "inputs": [],
      "name": "sann",
      "outputs": [
        {
          "internalType": "contract ISANN",
          "name": "",
          "type": "address"
        }
      ],
      "stateMutability": "view",
      "type": "function"
    },
    {
      "inputs": [
        {
          "internalType": "uint256",
          "name": "identifier",
          "type": "uint256"
        },
        {
          "internalType": "uint256",
          "name": "_maxDomainLength",
          "type": "uint256"
        }
      ],
      "name": "setMaxDomainLength",
      "outputs": [],
      "stateMutability": "nonpayable",
      "type": "function"
    },
    {
      "inputs": [
        {
          "internalType": "uint256",
          "name": "identifier",
          "type": "uint256"
        },
        {
          "internalType": "uint256",
          "name": "_minDomainLength",
          "type": "uint256"
        }
      ],
      "name": "setMinDomainLength",
      "outputs": [],
      "stateMutability": "nonpayable",
      "type": "function"
    },
    {
      "inputs": [
        {
          "internalType": "uint256",
          "name": "identifier",
          "type": "uint256"
        },
        {
          "internalType": "uint256",
          "name": "_minRegistrationDuration",
          "type": "uint256"
        }
      ],
      "name": "setMinRegistrationDuration",
      "outputs": [],
      "stateMutability": "nonpayable",
      "type": "function"
    },
    {
      "inputs": [
        {
          "internalType": "uint256",
          "name": "identifier",
          "type": "uint256"
        },
        {
          "internalType": "uint256",
          "name": "_minRenewDuration",
          "type": "uint256"
        }
      ],
      "name": "setMinRenewDuration",
      "outputs": [],
      "stateMutability": "nonpayable",
      "type": "function"
    },
    {
      "inputs": [
        {
          "internalType": "uint256",
          "name": "identifier",
          "type": "uint256"
        },
        {
          "internalType": "uint256",
          "name": "_mintCap",
          "type": "uint256"
        }
      ],
      "name": "setMintCap",
      "outputs": [],
      "stateMutability": "nonpayable",
      "type": "function"
    },
    {
      "inputs": [
        {
          "internalType": "uint256",
          "name": "identifier",
          "type": "uint256"
        },
        {
          "internalType": "address",
          "name": "_hook",
          "type": "address"
        }
      ],
      "name": "setPointHook",
      "outputs": [],
      "stateMutability": "nonpayable",
      "type": "function"
    },
    {
      "inputs": [
        {
          "internalType": "uint256",
          "name": "identifier",
          "type": "uint256"
        },
        {
          "internalType": "address",
          "name": "_hook",
          "type": "address"
        }
      ],
      "name": "setPriceHook",
      "outputs": [],
      "stateMutability": "nonpayable",
      "type": "function"
    },
    {
      "inputs": [
        {
          "internalType": "uint256",
          "name": "identifier",
          "type": "uint256"
        },
        {
          "internalType": "address",
          "name": "_hook",
          "type": "address"
        }
      ],
      "name": "setQualificationHook",
      "outputs": [],
      "stateMutability": "nonpayable",
      "type": "function"
    },
    {
      "inputs": [
        {
          "internalType": "uint256",
          "name": "identifier",
          "type": "uint256"
        },
        {
          "internalType": "address",
          "name": "_hook",
          "type": "address"
        }
      ],
      "name": "setRenewPointHook",
      "outputs": [],
      "stateMutability": "nonpayable",
      "type": "function"
    },
    {
      "inputs": [
        {
          "internalType": "uint256",
          "name": "identifier",
          "type": "uint256"
        },
        {
          "internalType": "address",
          "name": "_hook",
          "type": "address"
        }
      ],
      "name": "setRenewPriceHook",
      "outputs": [],
      "stateMutability": "nonpayable",
      "type": "function"
    },
    {
      "inputs": [
        {
          "internalType": "uint256",
          "name": "identifier",
          "type": "uint256"
        },
        {
          "internalType": "address",
          "name": "_hook",
          "type": "address"
        }
      ],
      "name": "setRenewRewardHook",
      "outputs": [],
      "stateMutability": "nonpayable",
      "type": "function"
    },
    {
      "inputs": [
        {
          "internalType": "uint256",
          "name": "identifier",
          "type": "uint256"
        },
        {
          "internalType": "address",
          "name": "_hook",
          "type": "address"
        }
      ],
      "name": "setRewardHook",
      "outputs": [],
      "stateMutability": "nonpayable",
      "type": "function"
    },
    {
      "inputs": [
        {
          "internalType": "uint256",
          "name": "identifier",
          "type": "uint256"
        },
        {
          "components": [
            {
              "internalType": "uint256",
              "name": "minDomainLength",
              "type": "uint256"
            },
            {
              "internalType": "uint256",
              "name": "maxDomainLength",
              "type": "uint256"
            },
            {
              "internalType": "uint256",
              "name": "minRegistrationDuration",
              "type": "uint256"
            },
            {
              "internalType": "uint256",
              "name": "minRenewDuration",
              "type": "uint256"
            },
            {
              "internalType": "uint256",
              "name": "mintCap",
              "type": "uint256"
            }
          ],
          "internalType": "struct TldConfig",
          "name": "_config",
          "type": "tuple"
        }
      ],
      "name": "setTldConfigs",
      "outputs": [],
      "stateMutability": "nonpayable",
      "type": "function"
    },
    {
      "inputs": [
        {
          "internalType": "uint256",
          "name": "identifier",
          "type": "uint256"
        },
        {
          "internalType": "address",
          "name": "_qualificationHook",
          "type": "address"
        },
        {
          "internalType": "address",
          "name": "_priceHook",
          "type": "address"
        },
        {
          "internalType": "address",
          "name": "_rewardHook",
          "type": "address"
        },
        {
          "internalType": "address",
          "name": "_renewPriceHook",
          "type": "address"
        },
        {
          "internalType": "address",
          "name": "_renewRewardHook",
          "type": "address"
        }
      ],
      "name": "setTldHooks",
      "outputs": [],
      "stateMutability": "nonpayable",
      "type": "function"
    },
    {
      "inputs": [
        {
          "internalType": "uint256",
          "name": "identifier",
          "type": "uint256"
        },
        {
          "internalType": "address",
          "name": "priceOracle",
          "type": "address"
        }
      ],
      "name": "setTldPriceOracle",
      "outputs": [],
      "stateMutability": "nonpayable",
      "type": "function"
    },
    {
      "inputs": [
        {
          "internalType": "uint256",
          "name": "",
          "type": "uint256"
        }
      ],
      "name": "tldConfigs",
      "outputs": [
        {
          "internalType": "uint256",
          "name": "minDomainLength",
          "type": "uint256"
        },
        {
          "internalType": "uint256",
          "name": "maxDomainLength",
          "type": "uint256"
        },
        {
          "internalType": "uint256",
          "name": "minRegistrationDuration",
          "type": "uint256"
        },
        {
          "internalType": "uint256",
          "name": "minRenewDuration",
          "type": "uint256"
        },
        {
          "internalType": "uint256",
          "name": "mintCap",
          "type": "uint256"
        }
      ],
      "stateMutability": "view",
      "type": "function"
    },
    {
      "inputs": [
        {
          "internalType": "uint256",
          "name": "",
          "type": "uint256"
        }
      ],
      "name": "tldHooks",
      "outputs": [
        {
          "internalType": "contract IQualificationHook",
          "name": "qualificationHook",
          "type": "address"
        },
        {
          "internalType": "contract IPriceHook",
          "name": "priceHook",
          "type": "address"
        },
        {
          "internalType": "contract IPointHook",
          "name": "pointHook",
          "type": "address"
        },
        {
          "internalType": "contract IRewardHook",
          "name": "rewardHook",
          "type": "address"
        },
        {
          "internalType": "contract IRenewPriceHook",
          "name": "renewPriceHook",
          "type": "address"
        },
        {
          "internalType": "contract IRenewPointHook",
          "name": "renewPointHook",
          "type": "address"
        },
        {
          "internalType": "contract IRenewRewardHook",
          "name": "renewRewardHook",
          "type": "address"
        }
      ],
      "stateMutability": "view",
      "type": "function"
    },
    {
      "inputs": [
        {
          "internalType": "uint256",
          "name": "",
          "type": "uint256"
        }
      ],
      "name": "tldPriceOracles",
      "outputs": [
        {
          "internalType": "contract IPriceOracle",
          "name": "",
          "type": "address"
        }
      ],
      "stateMutability": "view",
      "type": "function"
    },
    {
      "inputs": [
        {
          "internalType": "uint256",
          "name": "",
          "type": "uint256"
        }
      ],
      "name": "tldRevenues",
      "outputs": [
        {
          "internalType": "uint256",
          "name": "",
          "type": "uint256"
        }
      ],
      "stateMutability": "view",
      "type": "function"
    },
    {
      "inputs": [
        {
          "internalType": "address",
          "name": "newImplementation",
          "type": "address"
        }
      ],
      "name": "upgradeTo",
      "outputs": [],
      "stateMutability": "nonpayable",
      "type": "function"
    },
    {
      "inputs": [
        {
          "internalType": "address",
          "name": "newImplementation",
          "type": "address"
        },
        {
          "internalType": "bytes",
          "name": "data",
          "type": "bytes"
        }
      ],
      "name": "upgradeToAndCall",
      "outputs": [],
      "stateMutability": "payable",
      "type": "function"
    },
    {
      "inputs": [
        {
          "internalType": "uint256",
          "name": "identifier",
          "type": "uint256"
        }
      ],
      "name": "withdraw",
      "outputs": [],
      "stateMutability": "nonpayable",
      "type": "function"
    },
    {
      "inputs": [],
      "name": "withdrawPlatformFee",
      "outputs": [],
      "stateMutability": "nonpayable",
      "type": "function"
    },
    {
      "stateMutability": "payable",
      "type": "receive"
    }
  ],
  "bytecode": "0x60a0604052306080523480156200001557600080fd5b506200002062000026565b620000e7565b600054610100900460ff1615620000935760405162461bcd60e51b815260206004820152602760248201527f496e697469616c697a61626c653a20636f6e747261637420697320696e697469604482015266616c697a696e6760c81b606482015260840160405180910390fd5b60005460ff90811614620000e5576000805460ff191660ff9081179091556040519081527f7f26b83ff96e1f2b6a682f133852f6798a09c465da95921460cefb38474024989060200160405180910390a15b565b6080516156496200011f6000396000818161122601528181611266015281816113050152818161134501526113d401526156496000f3fe6080604052600436106102555760003560e01c806382a352e711610139578063d2bc8adc116100b6578063e6bc7ea21161007a578063e6bc7ea214610797578063e944463c146107b7578063f1af9c5e146107d7578063f2f47b84146107f7578063fd5bc42e14610869578063fdd32ec41461088957600080fd5b8063d2bc8adc146106fb578063d45e7ed01461071b578063d46da3871461073b578063de48bbcb14610761578063e3c98ba01461078157600080fd5b8063b34de3e7116100fd578063b34de3e714610675578063b442c8cf14610695578063b863dcdd146106a8578063c048cb20146106c8578063ccb787cb146106e857600080fd5b806382a352e7146105c75780639fb27d1d146105e7578063a289cf8414610607578063a494e5cf14610627578063ac7ad4431461063a57600080fd5b80633659cfe6116101d2578063576b3a6411610196578063576b3a64146105075780635d3590d51461052757806363dfd0e814610547578063669ce5cd146105675780636909579b1461058757806380869853146105a757600080fd5b80633659cfe61461045157806343d6807b146104715780634d24e236146104bf5780634f1ef286146104df57806352d1902d146104f257600080fd5b80631f038947116102195780631f038947146103c9578063202cefd5146103e957806323a7c86d146103fe5780632e1a7d4d1461041e57806332692b891461043e57600080fd5b806302d8f56d14610261578063076730c7146102a157806308d2396f146102c35780631459457a146102f35780631be0d2af1461031357600080fd5b3661025c57005b600080fd5b34801561026d57600080fd5b5061028e61027c366004614817565b60386020526000908152604090205481565b6040519081526020015b60405180910390f35b3480156102ad57600080fd5b506102c16102bc366004614845565b6108a9565b005b3480156102cf57600080fd5b506102e36102de3660046148bd565b6109c3565b6040519015158152602001610298565b3480156102ff57600080fd5b506102c161030e366004614908565b610adc565b34801561031f57600080fd5b5061038061032e366004614817565b60356020526000908152604090208054600182015460028301546003840154600485015460058601546006909601546001600160a01b0395861696948616959384169492841693918216928216911687565b604080516001600160a01b039889168152968816602088015294871694860194909452918516606085015284166080840152831660a083015290911660c082015260e001610298565b3480156103d557600080fd5b506102c16103e4366004614979565b610c41565b3480156103f557600080fd5b506102c1610d31565b34801561040a57600080fd5b506102c1610419366004614979565b610ec3565b34801561042a57600080fd5b506102c1610439366004614817565b610fb3565b61028e61044c3660046149df565b61111b565b34801561045d57600080fd5b506102c161046c366004614a61565b61121c565b34801561047d57600080fd5b506104a761048c366004614817565b6036602052600090815260409020546001600160a01b031681565b6040516001600160a01b039091168152602001610298565b3480156104cb57600080fd5b506001546104a7906001600160a01b031681565b6102c16104ed366004614aeb565b6112fb565b3480156104fe57600080fd5b5061028e6113c7565b34801561051357600080fd5b50603a546104a7906001600160a01b031681565b34801561053357600080fd5b506102c1610542366004614b7d565b61147a565b34801561055357600080fd5b506102c1610562366004614845565b611586565b34801561057357600080fd5b506102c1610582366004614845565b611690565b34801561059357600080fd5b506104a76105a2366004614817565b611797565b3480156105b357600080fd5b50603b546104a7906001600160a01b031681565b3480156105d357600080fd5b506102c16105e2366004614bbe565b6117cd565b3480156105f357600080fd5b506102c1610602366004614979565b611a1d565b34801561061357600080fd5b506037546104a7906001600160a01b031681565b61028e610635366004614c45565b611b1f565b34801561064657600080fd5b5061065a610655366004614d07565b611ba0565b60408051825181526020928301519281019290925201610298565b34801561068157600080fd5b506102c1610690366004614845565b611c40565b61028e6106a3366004614d59565b611d47565b3480156106b457600080fd5b506102c16106c3366004614979565b611e30565b3480156106d457600080fd5b506102c16106e3366004614df0565b611f95565b61028e6106f6366004614c45565b612080565b34801561070757600080fd5b506102c1610716366004614845565b6120e9565b34801561072757600080fd5b506102c1610736366004614845565b6121f0565b34801561074757600080fd5b506000546104a7906201000090046001600160a01b031681565b34801561076d57600080fd5b5061028e61077c366004614e28565b6122f7565b34801561078d57600080fd5b5061028e60395481565b3480156107a357600080fd5b506102c16107b2366004614845565b61236f565b3480156107c357600080fd5b506102c16107d2366004614845565b612471565b3480156107e357600080fd5b506102c16107f2366004614979565b612578565b34801561080357600080fd5b50610841610812366004614817565b603460205260009081526040902080546001820154600283015460038401546004909401549293919290919085565b604080519586526020860194909452928401919091526060830152608082015260a001610298565b34801561087557600080fd5b5061065a610884366004614d07565b6126e7565b34801561089557600080fd5b5061028e6108a4366004614e67565b61273d565b60005460405162e4decd60e31b815283913391620100009091046001600160a01b031690630726f668906108e590859060040190815260200190565b602060405180830381865afa158015610902573d6000803e3d6000fd5b505050506040513d601f19601f820116820180604052508101906109269190614eeb565b6001600160a01b0316146109555760405162461bcd60e51b815260040161094c90614f08565b60405180910390fd5b6000838152603560209081526040918290206003810180546001600160a01b0319166001600160a01b038716908117909155835187815292830152917fe204b1408cc4313756b658144b601fe723a958484dc182f37e0ded386a94ef7d91015b60405180910390a150505050565b60008054604051632c7263b560e01b81526004810186905282916201000090046001600160a01b031690632c7263b590602401602060405180830381865afa158015610a13573d6000803e3d6000fd5b505050506040513d601f19601f82011682018060405250810190610a379190614eeb565b905060008484604051610a4b929190614f4c565b60405180910390209050610a60868686612880565b8015610ad057506040516312dc929d60e31b8152600481018290526001600160a01b038316906396e494e890602401602060405180830381865afa158015610aac573d6000803e3d6000fd5b505050506040513d601f19601f82011682018060405250810190610ad09190614f5c565b925050505b9392505050565b600054610100900460ff1615808015610afc5750600054600160ff909116105b80610b165750303b158015610b16575060005460ff166001145b610b795760405162461bcd60e51b815260206004820152602e60248201527f496e697469616c697a61626c653a20636f6e747261637420697320616c72656160448201526d191e481a5b9a5d1a585b1a5e995960921b606482015260840161094c565b6000805460ff191660011790558015610b9c576000805461ff0019166101001790555b603780546001600160a01b038087166001600160a01b031992831617909255603a8054868416908316179055603b805492851692909116919091179055610be286612a80565b610beb85612ad1565b610bf3612b1a565b8015610c39576000805461ff0019169055604051600181527f7f26b83ff96e1f2b6a682f133852f6798a09c465da95921460cefb38474024989060200160405180910390a15b505050505050565b60005460405162e4decd60e31b815283913391620100009091046001600160a01b031690630726f66890610c7d90859060040190815260200190565b602060405180830381865afa158015610c9a573d6000803e3d6000fd5b505050506040513d601f19601f82011682018060405250810190610cbe9190614eeb565b6001600160a01b031614610ce45760405162461bcd60e51b815260040161094c90614f08565b600083815260346020908152604091829020600381018590558251868152918201859052917fcce38ffda70360ed2c66d1a39c523ef1d8aa472a5606b6c0a528d5ecf2fe52fe91016109b5565b6001546040805163853a65f960e01b8152905133926001600160a01b03169163853a65f99160048083019260209291908290030181865afa158015610d7a573d6000803e3d6000fd5b505050506040513d601f19601f82011682018060405250810190610d9e9190614eeb565b6001600160a01b031614610e0e5760405162461bcd60e51b815260206004820152603160248201527f4f776e61626c653a2063616c6c6572206973206e6f742074686520706c61746660448201527037b936903332b29031b7b63632b1ba37b960791b606482015260840161094c565b60398054600090915580610e575760405162461bcd60e51b815260206004820152601060248201526f696e73756666696369656e742066656560801b604482015260640161094c565b604051600090339083908381818185875af1925050503d8060008114610e99576040519150601f19603f3d011682016040523d82523d6000602084013e610e9e565b606091505b5050905080610ebf5760405162461bcd60e51b815260040161094c90614f79565b5050565b60005460405162e4decd60e31b815283913391620100009091046001600160a01b031690630726f66890610eff90859060040190815260200190565b602060405180830381865afa158015610f1c573d6000803e3d6000fd5b505050506040513d601f19601f82011682018060405250810190610f409190614eeb565b6001600160a01b031614610f665760405162461bcd60e51b815260040161094c90614f08565b600083815260346020908152604091829020600281018590558251868152918201859052917fe8c4cdf070fb09893e85544385665a343aef60941524ba76f869c565982c4c2891016109b5565b60005460405162e4decd60e31b815282913391620100009091046001600160a01b031690630726f66890610fef90859060040190815260200190565b602060405180830381865afa15801561100c573d6000803e3d6000fd5b505050506040513d601f19601f820116820180604052508101906110309190614eeb565b6001600160a01b0316146110565760405162461bcd60e51b815260040161094c90614f08565b60008281526038602052604081208054919055806110ad5760405162461bcd60e51b8152602060048201526014602482015273696e73756666696369656e7420726576656e756560601b604482015260640161094c565b604051600090339083908381818185875af1925050503d80600081146110ef576040519150601f19603f3d011682016040523d82523d6000602084013e6110f4565b606091505b50509050806111155760405162461bcd60e51b815260040161094c90614f79565b50505050565b60008080805b8781101561120057600080898703611190576111868c8c8c8681811061114957611149614fa7565b905060200281019061115b9190614fbd565b8c338d8d8a81811061116f5761116f614fa7565b90506020028101906111819190614fbd565b612b4b565b90925090506111d3565b6111cd8c8c8c868181106111a6576111a6614fa7565b90506020028101906111b89190614fbd565b8c338d8d600081811061116f5761116f614fa7565b90925090505b6111dd8285615019565b93506111e98186615019565b9450505080806111f89061502c565b915050611121565b50600061120e8a8385612d3e565b9a9950505050505050505050565b6001600160a01b037f00000000000000000000000000000000000000000000000000000000000000001630036112645760405162461bcd60e51b815260040161094c90615045565b7f00000000000000000000000000000000000000000000000000000000000000006001600160a01b03166112ad6000805160206155cd833981519152546001600160a01b031690565b6001600160a01b0316146112d35760405162461bcd60e51b815260040161094c90615091565b6112dc81612fb9565b604080516000808252602082019092526112f891839190613052565b50565b6001600160a01b037f00000000000000000000000000000000000000000000000000000000000000001630036113435760405162461bcd60e51b815260040161094c90615045565b7f00000000000000000000000000000000000000000000000000000000000000006001600160a01b031661138c6000805160206155cd833981519152546001600160a01b031690565b6001600160a01b0316146113b25760405162461bcd60e51b815260040161094c90615091565b6113bb82612fb9565b610ebf82826001613052565b6000306001600160a01b037f000000000000000000000000000000000000000000000000000000000000000016146114675760405162461bcd60e51b815260206004820152603860248201527f555550535570677261646561626c653a206d757374206e6f742062652063616c60448201527f6c6564207468726f7567682064656c656761746563616c6c0000000000000000606482015260840161094c565b506000805160206155cd83398151915290565b6000546040805163cdcd7fb560e01b8152905133926201000090046001600160a01b03169163cdcd7fb59160048083019260209291908290030181865afa1580156114c9573d6000803e3d6000fd5b505050506040513d601f19601f820116820180604052508101906114ed9190614eeb565b6001600160a01b0316146115135760405162461bcd60e51b815260040161094c906150dd565b60405163a9059cbb60e01b81526001600160a01b0383811660048301526024820183905284169063a9059cbb906044016020604051808303816000875af1158015611562573d6000803e3d6000fd5b505050506040513d601f19601f820116820180604052508101906111159190614f5c565b60005460405162e4decd60e31b815283913391620100009091046001600160a01b031690630726f668906115c290859060040190815260200190565b602060405180830381865afa1580156115df573d6000803e3d6000fd5b505050506040513d601f19601f820116820180604052508101906116039190614eeb565b6001600160a01b0316146116295760405162461bcd60e51b815260040161094c90614f08565b60008381526036602090815260409182902080546001600160a01b0319166001600160a01b0386169081179091558251868152918201527f0e65447dcb916c8017fbe654fdd00b172fec1f0e7803018a37050e700c20a37f910160405180910390a1505050565b60005460405162e4decd60e31b815283913391620100009091046001600160a01b031690630726f668906116cc90859060040190815260200190565b602060405180830381865afa1580156116e9573d6000803e3d6000fd5b505050506040513d601f19601f8201168201806040525081019061170d9190614eeb565b6001600160a01b0316146117335760405162461bcd60e51b815260040161094c90614f08565b6000838152603560209081526040918290206005810180546001600160a01b0319166001600160a01b038716908117909155835187815292830152917fcf1f0d17ea01938c06cba546f89b9b7dda5f259ef5b77a4733ec642bceb008eb91016109b5565b6000818152603660205260408120546001600160a01b0316806117c7575050603a546001600160a01b0316919050565b92915050565b60005460405162e4decd60e31b815287913391620100009091046001600160a01b031690630726f6689061180990859060040190815260200190565b602060405180830381865afa158015611826573d6000803e3d6000fd5b505050506040513d601f19601f8201168201806040525081019061184a9190614eeb565b6001600160a01b0316146118705760405162461bcd60e51b815260040161094c90614f08565b60008781526035602090815260409182902080546001600160a01b03199081166001600160a01b038b8116918217845560018401805484168c831617905560038401805484168b831617905560048401805484168a83161790556006840180549093169088161790915583518b815292830152917fac577474c2505adbd93b1ddd44b3a31ec78fe871b97a97dd15f2ae2fdea45776910160405180910390a1604080518981526001600160a01b03881660208201527fc7f42afd8cbc412e62bfa6e8bc2866776a5ac1caaaf585d2faf16ccde19fbef5910160405180910390a1604080518981526001600160a01b03871660208201527fe204b1408cc4313756b658144b601fe723a958484dc182f37e0ded386a94ef7d910160405180910390a1604080518981526001600160a01b03861660208201527f34b3dc41ee7dd660208f82c4dea165b04dbc34ba2272219bc0be902798d8904b910160405180910390a1604080518981526001600160a01b03851660208201527fbce6be89b296a4efbc6a0e570267d046bcd4816102c86bfc0388b54eb0bb676a910160405180910390a15050505050505050565b60005460405162e4decd60e31b815283913391620100009091046001600160a01b031690630726f66890611a5990859060040190815260200190565b602060405180830381865afa158015611a76573d6000803e3d6000fd5b505050506040513d601f19601f82011682018060405250810190611a9a9190614eeb565b6001600160a01b031614611ac05760405162461bcd60e51b815260040161094c90614f08565b60008381526034602052604090208215611ae05760048101839055611ae9565b60001960048201555b60408051858152602081018590527fd0705bce265d909a183d44137621ac0cead8ebcd1a59e86bab7fe1da3ad566da91016109b5565b60003315611b2c57600080fd5b6040805160a0810182526001600160a01b03808a16808352602083015291810188905290861660608201528415156080820152600080611b708d8d8d868a8a6131bd565b915091506000611b818e8484612d3e565b905080604051633573016360e01b815260040161094c91815260200190565b60408051808201909152600080825260208201526000611bbf86611797565b604051630502c67560e01b81529091506001600160a01b03821690630502c67590611bf69088908890429089908d90600401615152565b6040805180830381865afa158015611c12573d6000803e3d6000fd5b505050506040513d601f19601f82011682018060405250810190611c369190615183565b9695505050505050565b60005460405162e4decd60e31b815283913391620100009091046001600160a01b031690630726f66890611c7c90859060040190815260200190565b602060405180830381865afa158015611c99573d6000803e3d6000fd5b505050506040513d601f19601f82011682018060405250810190611cbd9190614eeb565b6001600160a01b031614611ce35760405162461bcd60e51b815260040161094c90614f08565b6000838152603560209081526040918290206002810180546001600160a01b0319166001600160a01b038716908117909155835187815292830152917f8a1b187e18ba1cf07ac179c27384169e67be275060c3b2dc512da41492be9fee91016109b5565b60003315611d5457600080fd5b60008060005b88811015611e22576000808a8703611db257611da88d8d8d86818110611d8257611d82614fa7565b9050602002810190611d949190614fbd565b8d8d8d8d8a81811061116f5761116f614fa7565b9092509050611df5565b611def8d8d8d86818110611dc857611dc8614fa7565b9050602002810190611dda9190614fbd565b8d8d8d8d600081811061116f5761116f614fa7565b90925090505b611dff8285615019565b9350611e0b8186615019565b945050508080611e1a9061502c565b915050611d5a565b506000611b818b8385612d3e565b60005460405162e4decd60e31b815283913391620100009091046001600160a01b031690630726f66890611e6c90859060040190815260200190565b602060405180830381865afa158015611e89573d6000803e3d6000fd5b505050506040513d601f19601f82011682018060405250810190611ead9190614eeb565b6001600160a01b031614611ed35760405162461bcd60e51b815260040161094c90614f08565b60008381526034602052604090208054831015611f585760405162461bcd60e51b815260206004820152603b60248201527f6d6178446f6d61696e4c656e677468206d75737420626520677265617465722060448201527f6f7220657175616c20746f206d696e446f6d61696e4c656e6774680000000000606482015260840161094c565b6001810183905560408051858152602081018590527f5cc178cc645fedac2530cae167f2d00984528d986ad85e645f0283deac25fcf291016109b5565b60005460405162e4decd60e31b815283913391620100009091046001600160a01b031690630726f66890611fd190859060040190815260200190565b602060405180830381865afa158015611fee573d6000803e3d6000fd5b505050506040513d601f19601f820116820180604052508101906120129190614eeb565b6001600160a01b0316146120385760405162461bcd60e51b815260040161094c90614f08565b612046838360200135611e30565b612051838335612578565b61205f838360800135611a1d565b61206d838360400135610ec3565b61207b838360600135610c41565b505050565b6040805160a0810182523381526001600160a01b0388811660208301529181018790529085166060820152831515608082015260009081806120c68d8d8d868a8a6131bd565b9150915060006120d78e8484612d3e565b9e9d5050505050505050505050505050565b60005460405162e4decd60e31b815283913391620100009091046001600160a01b031690630726f6689061212590859060040190815260200190565b602060405180830381865afa158015612142573d6000803e3d6000fd5b505050506040513d601f19601f820116820180604052508101906121669190614eeb565b6001600160a01b03161461218c5760405162461bcd60e51b815260040161094c90614f08565b6000838152603560209081526040918290206004810180546001600160a01b0319166001600160a01b038716908117909155835187815292830152917f34b3dc41ee7dd660208f82c4dea165b04dbc34ba2272219bc0be902798d8904b91016109b5565b60005460405162e4decd60e31b815283913391620100009091046001600160a01b031690630726f6689061222c90859060040190815260200190565b602060405180830381865afa158015612249573d6000803e3d6000fd5b505050506040513d601f19601f8201168201806040525081019061226d9190614eeb565b6001600160a01b0316146122935760405162461bcd60e51b815260040161094c90614f08565b6000838152603560209081526040918290206006810180546001600160a01b0319166001600160a01b038716908117909155835187815292830152917fbce6be89b296a4efbc6a0e570267d046bcd4816102c86bfc0388b54eb0bb676a91016109b5565b6000805b838110156123665760006123338787878581811061231b5761231b614fa7565b905060200281019061232d9190614fbd565b876126e7565b6020810151815191925061234691615019565b6123509084615019565b925050808061235e9061502c565b9150506122fb565b50949350505050565b60005460405162e4decd60e31b815283913391620100009091046001600160a01b031690630726f668906123ab90859060040190815260200190565b602060405180830381865afa1580156123c8573d6000803e3d6000fd5b505050506040513d601f19601f820116820180604052508101906123ec9190614eeb565b6001600160a01b0316146124125760405162461bcd60e51b815260040161094c90614f08565b60008381526035602090815260409182902080546001600160a01b0319166001600160a01b0386169081178255835187815292830152917fac577474c2505adbd93b1ddd44b3a31ec78fe871b97a97dd15f2ae2fdea4577691016109b5565b60005460405162e4decd60e31b815283913391620100009091046001600160a01b031690630726f668906124ad90859060040190815260200190565b602060405180830381865afa1580156124ca573d6000803e3d6000fd5b505050506040513d601f19601f820116820180604052508101906124ee9190614eeb565b6001600160a01b0316146125145760405162461bcd60e51b815260040161094c90614f08565b6000838152603560209081526040918290206001810180546001600160a01b0319166001600160a01b038716908117909155835187815292830152917fc7f42afd8cbc412e62bfa6e8bc2866776a5ac1caaaf585d2faf16ccde19fbef591016109b5565b60005460405162e4decd60e31b815283913391620100009091046001600160a01b031690630726f668906125b490859060040190815260200190565b602060405180830381865afa1580156125d1573d6000803e3d6000fd5b505050506040513d601f19601f820116820180604052508101906125f59190614eeb565b6001600160a01b03161461261b5760405162461bcd60e51b815260040161094c90614f08565b6000838152603460205260409020821580159061263c575080600101548311155b6126ae5760405162461bcd60e51b815260206004820152603860248201527f6d696e446f6d61696e4c656e677468206d757374206265206c657373206f722060448201527f657175616c20746f206d6178446f6d61696e4c656e6774680000000000000000606482015260840161094c565b82815560408051858152602081018590527f5a76e4dbb1f005eb83fcaadd13ceb68b0e0b3e0114c4c53fb8d38e3f9070379191016109b5565b6040805180820190915260008082526020820152600061270686611797565b6040516364c9075f60e11b81529091506001600160a01b0382169063c9920ebe90611bf69088908890429089908d90600401615152565b60008061274c89898988611ba0565b6020810151815191925061275f91615019565b60008a8152603560205260409020600181015491935091506001600160a01b0316156128095760018101546040516393ba731b60e01b81526001600160a01b03909116906393ba731b906127c5908c908c908c908c908c908a908d908d906004016151d1565b602060405180830381865afa1580156127e2573d6000803e3d6000fd5b505050506040513d601f19601f82011682018060405250810190612806919061522a565b91505b60006128148a611797565b6040516368a33fc360e11b8152600481018590529091506001600160a01b0382169063d1467f8690602401602060405180830381865afa15801561285c573d6000803e3d6000fd5b505050506040513d601f19601f8201168201806040525081019061120e919061522a565b60008381526034602052604080822082549151632c7263b560e01b81526004810187905290918391620100009091046001600160a01b031690632c7263b590602401602060405180830381865afa1580156128df573d6000803e3d6000fd5b505050506040513d601f19601f820116820180604052508101906129039190614eeb565b9050816000015461294986868080601f0160208091040260200160405190810160405280939291908181526020018383808284376000920191909152506132ac92505050565b101561295a57600092505050610ad5565b816001015461299e86868080601f0160208091040260200160405190810160405280939291908181526020018383808284376000920191909152506132ac92505050565b11156129af57600092505050610ad5565b6129ee85858080601f0160208091040260200160405190810160405280939291908181526020018383808284376000920191909152506133af92505050565b6129fd57600092505050610ad5565b806001600160a01b0316636f3d8fe86040518163ffffffff1660e01b8152600401602060405180830381865afa158015612a3b573d6000803e3d6000fd5b505050506040513d601f19601f82011682018060405250810190612a5f919061522a565b826004015411612a7457600092505050610ad5565b50600195945050505050565b600054610100900460ff16612aa75760405162461bcd60e51b815260040161094c90615243565b600080546001600160a01b03909216620100000262010000600160b01b0319909216919091179055565b600054610100900460ff16612af85760405162461bcd60e51b815260040161094c90615243565b600180546001600160a01b0319166001600160a01b0392909216919091179055565b600054610100900460ff16612b415760405162461bcd60e51b815260040161094c90615243565b612b496135c1565b565b600080612b566135ef565b60008981526034602052604090206003810154871015612b9357604051634086703360e11b8152600481018b90526024810188905260440161094c565b50600080612ba38b8b8b8b611ba0565b60208101518151919250612bb691615019565b60008c8152603560205260409020600481015491935091506001600160a01b031615612bfe576004810154612bfb906001600160a01b03168c8c8c8b8d888d8d613646565b91505b6001546040516338ad915960e01b8152600481018d9052602481018490526001600160a01b03909116906338ad915990604401602060405180830381865afa158015612c4e573d6000803e3d6000fd5b505050506040513d601f19601f82011682018060405250810190612c72919061522a565b9250818310612c845760009350612c91565b612c8e838361528e565b93505b60058101546001600160a01b031615612ce5576005810154612cc4906001600160a01b03168c8c8c8b8d888a8e8e6136a2565b93509150828210612ce057612cd9838361528e565b9350612ce5565b600093505b60068101546001600160a01b031615612d19576006810154612d19906001600160a01b03168c8c8c8b8d888b8b8f8f6137e1565b612d268b8b8b8b866138ea565b5050612d326001600255565b97509795505050505050565b600080612d4a85611797565b905060006001600160a01b03821663d1467f86612d678688615019565b6040518263ffffffff1660e01b8152600401612d8591815260200190565b602060405180830381865afa158015612da2573d6000803e3d6000fd5b505050506040513d601f19601f82011682018060405250810190612dc6919061522a565b905080341015612e0d5760405162461bcd60e51b8152602060048201526012602482015271496e73756666696369656e742066756e647360701b604482015260640161094c565b6000612e19823461528e565b90508015612e8b57604051600090339083908381818185875af1925050503d8060008114612e63576040519150601f19603f3d011682016040523d82523d6000602084013e612e68565b606091505b5050905080612e895760405162461bcd60e51b815260040161094c90614f79565b505b60008515612f16576040516368a33fc360e11b8152600481018790526001600160a01b0385169063d1467f8690602401602060405180830381865afa158015612ed8573d6000803e3d6000fd5b505050506040513d601f19601f82011682018060405250810190612efc919061522a565b90508060396000828254612f109190615019565b90915550505b828615612f89576040516368a33fc360e11b8152600481018990526001600160a01b0386169063d1467f8690602401602060405180830381865afa158015612f62573d6000803e3d6000fd5b505050506040513d601f19601f82011682018060405250810190612f86919061522a565b90505b60008981526038602052604081208054839290612fa7908490615019565b90915550939998505050505050505050565b6000546040805163cdcd7fb560e01b8152905133926201000090046001600160a01b03169163cdcd7fb59160048083019260209291908290030181865afa158015613008573d6000803e3d6000fd5b505050506040513d601f19601f8201168201806040525081019061302c9190614eeb565b6001600160a01b0316146112f85760405162461bcd60e51b815260040161094c906150dd565b7f4910fdfa16fed3260ed0e7147f7cc6da11a60208b5b9406d12a635614ffd91435460ff16156130855761207b83613a3a565b826001600160a01b03166352d1902d6040518163ffffffff1660e01b8152600401602060405180830381865afa9250505080156130df575060408051601f3d908101601f191682019092526130dc9181019061522a565b60015b6131425760405162461bcd60e51b815260206004820152602e60248201527f45524331393637557067726164653a206e657720696d706c656d656e7461746960448201526d6f6e206973206e6f74205555505360901b606482015260840161094c565b6000805160206155cd83398151915281146131b15760405162461bcd60e51b815260206004820152602960248201527f45524331393637557067726164653a20756e737570706f727465642070726f786044820152681a58589b195555525160ba1b606482015260840161094c565b5061207b838383613ad6565b60008060005b868110156132a057600080888603613231576132278b8b8b868181106131eb576131eb614fa7565b90506020028101906131fd9190614fbd565b8b8b8b8981811061321057613210614fa7565b90506020028101906132229190614fbd565b613afb565b9092509050613273565b61326d8b8b8b8681811061324757613247614fa7565b90506020028101906132599190614fbd565b8b8b8b600081811061321057613210614fa7565b90925090505b61327d8286615019565b94506132898185615019565b9350505080806132989061502c565b9150506131c3565b50965096945050505050565b8051600090819081905b808210156133a65760008583815181106132d2576132d2614fa7565b01602001516001600160f81b0319169050600160ff1b811015613301576132fa600184615019565b9250613393565b600760fd1b6001600160f81b031982161015613322576132fa600284615019565b600f60fc1b6001600160f81b031982161015613343576132fa600384615019565b601f60fb1b6001600160f81b031982161015613364576132fa600484615019565b603f60fa1b6001600160f81b031982161015613385576132fa600584615019565b613390600684615019565b92505b508261339e8161502c565b9350506132b6565b50909392505050565b6000808290506003815110156133c85750600192915050565b60005b600282516133d9919061528e565b8110156135b7578181815181106133f2576133f2614fa7565b6020910101516001600160f81b031916607160f91b14801561344257508161341b826001615019565b8151811061342b5761342b614fa7565b6020910101516001600160f81b031916600160ff1b145b156134ff5781613453826002615019565b8151811061346357613463614fa7565b6020910101516001600160f81b031916608b60f81b14806134b257508161348b826002615019565b8151811061349b5761349b614fa7565b6020910101516001600160f81b031916602360fa1b145b806134eb5750816134c4826002615019565b815181106134d4576134d4614fa7565b6020910101516001600160f81b031916608d60f81b145b156134fa575060009392505050565b6135a5565b81818151811061351157613511614fa7565b01602001516001600160f81b03191660ef60f81b036135a55781613536826001615019565b8151811061354657613546614fa7565b6020910101516001600160f81b03191660bb60f81b14801561359657508161356f826002615019565b8151811061357f5761357f614fa7565b6020910101516001600160f81b03191660bf60f81b145b156135a5575060009392505050565b806135af8161502c565b9150506133cb565b5060019392505050565b600054610100900460ff166135e85760405162461bcd60e51b815260040161094c90615243565b6001600255565b60028054036136405760405162461bcd60e51b815260206004820152601f60248201527f5265656e7472616e637947756172643a207265656e7472616e742063616c6c00604482015260640161094c565b60028055565b604051630b6ca89760e01b81526000906001600160a01b038b1690630b6ca89790613683908c908c908c908c908c908c908c908c906004016151d1565b6020604051808303816000875af115801561285c573d6000803e3d6000fd5b6000806000808d6001600160a01b031663392130da8e8e8e8e8e8e8e8e8e6040518a63ffffffff1660e01b81526004016136e4999897969594939291906152a1565b60408051808303816000875af1158015613702573d6000803e3d6000fd5b505050506040513d601f19601f820116820180604052508101906137269190615302565b915091508188101561373757600080fd5b613741828961528e565b9750868111156137545750600095613761565b61375e818861528e565b96505b80156137cd576037546040516395d4be7f60e01b8152600481018f9052602481018390526001600160a01b03909116906395d4be7f90604401600060405180830381600087803b1580156137b457600080fd5b505af11580156137c8573d6000803e3d6000fd5b505050505b50959c949b50939950505050505050505050565b60006137ec8b611797565b6040516368a33fc360e11b8152600481018790529091506000906001600160a01b0383169063d1467f8690602401602060405180830381865afa158015613837573d6000803e3d6000fd5b505050506040513d601f19601f8201168201806040525081019061385b919061522a565b90503481111561386a57600080fd5b8c6001600160a01b03166376b0bb7d828e8e8e8e8e8e8e8e8e8e6040518c63ffffffff1660e01b81526004016138a99a99989796959493929190615326565b6000604051808303818588803b1580156138c257600080fd5b505af11580156138d6573d6000803e3d6000fd5b505050505050505050505050505050505050565b60008054604051632c7263b560e01b815260048101889052620100009091046001600160a01b031690632c7263b590602401602060405180830381865afa158015613939573d6000803e3d6000fd5b505050506040513d601f19601f8201168201806040525081019061395d9190614eeb565b905060008585604051613971929190614f4c565b60405190819003812063c475abff60e01b8252600482018190526024820186905291506000906001600160a01b0384169063c475abff906044016020604051808303816000875af11580156139ca573d6000803e3d6000fd5b505050506040513d601f19601f820116820180604052508101906139ee919061522a565b9050817f784220c4d2cf9a5d0361368e22f52f257be5f1e4819cf161d06f62dcec9721168989898886604051613a2895949392919061538d565b60405180910390a25050505050505050565b6001600160a01b0381163b613aa75760405162461bcd60e51b815260206004820152602d60248201527f455243313936373a206e657720696d706c656d656e746174696f6e206973206e60448201526c1bdd08184818dbdb9d1c9858dd609a1b606482015260840161094c565b6000805160206155cd83398151915280546001600160a01b0319166001600160a01b0392909216919091179055565b613adf83613dce565b600082511180613aec5750805b1561207b576111158383613e0e565b600080613b066135ef565b613b118888886109c3565b613b345787878760405163191cb15d60e31b815260040161094c939291906153bb565b6000888152603460205260409081902060028101549187015190911115613b7f57888660400151604051634086703360e11b815260040161094c929190918252602082015260400190565b50600088815260356020526040902080546001600160a01b031615613bc257805486516040880151613bc2926001600160a01b0316918c918c918c918b8b613e33565b600080613bd58b8b8b8b60400151611ba0565b60208101518151919250613be891615019565b60018401549092506001600160a01b0316159050613c2b57600182015487516040890151613c28926001600160a01b0316918d918d918d91878d8d613edc565b90505b60015460405163265cb65160e21b8152600481018c9052602481018390526001600160a01b0390911690639972d94490604401602060405180830381865afa158015613c7b573d6000803e3d6000fd5b505050506040513d601f19601f82011682018060405250810190613c9f919061522a565b9250808310613cb15760009350613cbe565b613cbb838261528e565b93505b60028201546001600160a01b031615613d1b57600282015487516040890151613cfa926001600160a01b0316918d918d918d91878a8e8e613f19565b93509050828110613d1657613d0f838261528e565b9350613d1b565b600093505b60038201546001600160a01b031615613d5857600382015487516040890151613d58926001600160a01b0316918d918d918d91878b8b8f8f613f5b565b613d738a8a8a8a602001518b604001518c6060015187614023565b86608001518015613d9d575086602001516001600160a01b031687600001516001600160a01b0316145b15613db757613db78a8a8a8a606001518b6020015161441b565b5050613dc36001600255565b965096945050505050565b613dd781613a3a565b6040516001600160a01b038216907fbc7cd75a20ee27fd9adebab32041f755214dbc6bffa90cc0225b39da2e5c2d3b90600090a250565b6060610ad583836040518060600160405280602781526020016155ed60279139614703565b6040516336625cc360e01b81526000906001600160a01b038a16906336625cc390613e6e908b908b908b908b908b908b908b906004016153de565b6020604051808303816000875af1158015613e8d573d6000803e3d6000fd5b505050506040513d601f19601f82011682018060405250810190613eb19190614f5c565b905080613ed157604051630f059a9560e21b815260040160405180910390fd5b505050505050505050565b6040516380fd9d8d60e01b81526000906001600160a01b038b16906380fd9d8d90613683908c908c908c908c908c908c908c908c906004016151d1565b6000806000808d6001600160a01b031663347652e38e8e8e8e8e8e8e8e8e6040518a63ffffffff1660e01b81526004016136e4999897969594939291906152a1565b6000613f668b611797565b6040516368a33fc360e11b8152600481018790529091506000906001600160a01b0383169063d1467f8690602401602060405180830381865afa158015613fb1573d6000803e3d6000fd5b505050506040513d601f19601f82011682018060405250810190613fd5919061522a565b905034811115613fe457600080fd5b8c6001600160a01b03166322a6f8db828e8e8e8e8e8e8e8e8e8e6040518c63ffffffff1660e01b81526004016138a99a99989796959493929190615326565b6000808787604051614036929190614f4c565b60405190819003812060008054632c7263b560e01b8452600484018d9052919350839290916201000090046001600160a01b031690632c7263b590602401602060405180830381865afa158015614091573d6000803e3d6000fd5b505050506040513d601f19601f820116820180604052508101906140b59190614eeb565b604051633f2891eb60e21b815260048101849052306024820152604481018990529091506001600160a01b0382169063fca247ac906064016020604051808303816000875af115801561410c573d6000803e3d6000fd5b505050506040513d601f19601f82011682018060405250810190614130919061522a565b9350876001600160a01b0316837ffff5126f1caa0828f41366705e553eafc996d02fffa924bf2c463a00a17600dc8d8d8d8a8a60405161417495949392919061538d565b60405180910390a36000816001600160a01b031663ddf7fcb06040518163ffffffff1660e01b8152600401602060405180830381865afa1580156141bc573d6000803e3d6000fd5b505050506040513d601f19601f820116820180604052508101906141e0919061522a565b6040805160208101929092528101859052606001604051602081830303815290604052805190602001209050816001600160a01b031663bc344ca16040518163ffffffff1660e01b8152600401602060405180830381865afa15801561424a573d6000803e3d6000fd5b505050506040513d601f19601f8201168201806040525081019061426e9190614eeb565b604051630c4b7b8560e11b8152600481018390526001600160a01b0389811660248301529190911690631896f70a90604401600060405180830381600087803b1580156142ba57600080fd5b505af11580156142ce573d6000803e3d6000fd5b505050506001600160a01b038916156143435760405162d5fa2b60e81b8152600481018290526001600160a01b038a8116602483015288169063d5fa2b0090604401600060405180830381600087803b15801561432a57600080fd5b505af115801561433e573d6000803e3d6000fd5b505050505b604051630a3b53db60e21b8152600481018490526001600160a01b038a811660248301528316906328ed4f6c90604401600060405180830381600087803b15801561438d57600080fd5b505af11580156143a1573d6000803e3d6000fd5b50506040516323b872dd60e01b81523060048201526001600160a01b038c8116602483015260448201879052851692506323b872dd9150606401600060405180830381600087803b1580156143f557600080fd5b505af1158015614409573d6000803e3d6000fd5b50505050505050505050505050505050565b6000805460405163128497ff60e31b815260048101889052620100009091046001600160a01b031690639424bff890602401600060405180830381865afa15801561446a573d6000803e3d6000fd5b505050506040513d6000823e601f3d908101601f191682016040526144929190810190615445565b603b54604051632ffef98760e21b81523360048201529192506000916001600160a01b039091169063bffbe61c90602401602060405180830381865afa1580156144e0573d6000803e3d6000fd5b505050506040513d601f19601f82011682018060405250810190614504919061522a565b60405163691f343160e01b8152600481018290529091506000906001600160a01b0386169063691f343190602401600060405180830381865afa15801561454f573d6000803e3d6000fd5b505050506040513d6000823e601f3d908101601f191682016040526145779190810190615445565b9050805160000361464257603b546040516001600160a01b0390911690637a806d6b903390879089906145b0908d908d906020016154b2565b60408051601f19818403018152908290526145cf918a906020016154c8565b6040516020818303038152906040526040518563ffffffff1660e01b81526004016145fd9493929190615523565b6020604051808303816000875af115801561461c573d6000803e3d6000fd5b505050506040513d601f19601f82011682018060405250810190614640919061522a565b505b603b546040516001600160a01b03909116906397c3a355903390879089908d90614672908e908e906020016154b2565b60408051601f1981840301815290829052614691918b906020016154c8565b6040516020818303038152906040526040518663ffffffff1660e01b81526004016146c0959493929190615557565b6020604051808303816000875af11580156146df573d6000803e3d6000fd5b505050506040513d601f19601f82011682018060405250810190613ed1919061522a565b6060600080856001600160a01b031685604051614720919061559d565b600060405180830381855af49150503d806000811461475b576040519150601f19603f3d011682016040523d82523d6000602084013e614760565b606091505b5091509150610ad086838387606083156147db5782516000036147d4576001600160a01b0385163b6147d45760405162461bcd60e51b815260206004820152601d60248201527f416464726573733a2063616c6c20746f206e6f6e2d636f6e7472616374000000604482015260640161094c565b50816147e5565b6147e583836147ed565b949350505050565b8151156147fd5781518083602001fd5b8060405162461bcd60e51b815260040161094c91906155b9565b60006020828403121561482957600080fd5b5035919050565b6001600160a01b03811681146112f857600080fd5b6000806040838503121561485857600080fd5b82359150602083013561486a81614830565b809150509250929050565b60008083601f84011261488757600080fd5b5081356001600160401b0381111561489e57600080fd5b6020830191508360208285010111156148b657600080fd5b9250929050565b6000806000604084860312156148d257600080fd5b8335925060208401356001600160401b038111156148ef57600080fd5b6148fb86828701614875565b9497909650939450505050565b600080600080600060a0868803121561492057600080fd5b853561492b81614830565b9450602086013561493b81614830565b9350604086013561494b81614830565b9250606086013561495b81614830565b9150608086013561496b81614830565b809150509295509295909350565b6000806040838503121561498c57600080fd5b50508035926020909101359150565b60008083601f8401126149ad57600080fd5b5081356001600160401b038111156149c457600080fd5b6020830191508360208260051b85010111156148b657600080fd5b600080600080600080608087890312156149f857600080fd5b8635955060208701356001600160401b0380821115614a1657600080fd5b614a228a838b0161499b565b9097509550604089013594506060890135915080821115614a4257600080fd5b50614a4f89828a0161499b565b979a9699509497509295939492505050565b600060208284031215614a7357600080fd5b8135610ad581614830565b634e487b7160e01b600052604160045260246000fd5b604051601f8201601f191681016001600160401b0381118282101715614abc57614abc614a7e565b604052919050565b60006001600160401b03821115614add57614add614a7e565b50601f01601f191660200190565b60008060408385031215614afe57600080fd5b8235614b0981614830565b915060208301356001600160401b03811115614b2457600080fd5b8301601f81018513614b3557600080fd5b8035614b48614b4382614ac4565b614a94565b818152866020838501011115614b5d57600080fd5b816020840160208301376000602083830101528093505050509250929050565b600080600060608486031215614b9257600080fd5b8335614b9d81614830565b92506020840135614bad81614830565b929592945050506040919091013590565b60008060008060008060c08789031215614bd757600080fd5b863595506020870135614be981614830565b94506040870135614bf981614830565b93506060870135614c0981614830565b92506080870135614c1981614830565b915060a0870135614c2981614830565b809150509295509295509295565b80151581146112f857600080fd5b600080600080600080600080600060e08a8c031215614c6357600080fd5b8935985060208a01356001600160401b0380821115614c8157600080fd5b614c8d8d838e0161499b565b909a50985060408c01359150614ca282614830565b90965060608b0135955060808b013590614cbb82614830565b90945060a08b013590614ccd82614c37565b90935060c08b01359080821115614ce357600080fd5b50614cf08c828d0161499b565b915080935050809150509295985092959850929598565b60008060008060608587031215614d1d57600080fd5b8435935060208501356001600160401b03811115614d3a57600080fd5b614d4687828801614875565b9598909750949560400135949350505050565b600080600080600080600060a0888a031215614d7457600080fd5b8735965060208801356001600160401b0380821115614d9257600080fd5b614d9e8b838c0161499b565b909850965060408a0135955060608a01359150614dba82614830565b90935060808901359080821115614dd057600080fd5b50614ddd8a828b0161499b565b989b979a50959850939692959293505050565b60008082840360c0811215614e0457600080fd5b8335925060a0601f1982011215614e1a57600080fd5b506020830190509250929050565b60008060008060608587031215614e3e57600080fd5b8435935060208501356001600160401b03811115614e5b57600080fd5b614d468782880161499b565b600080600080600080600060a0888a031215614e8257600080fd5b8735965060208801356001600160401b0380821115614ea057600080fd5b614eac8b838c01614875565b909850965060408a01359150614ec182614830565b9094506060890135935060808901359080821115614ede57600080fd5b50614ddd8a828b01614875565b600060208284031215614efd57600080fd5b8151610ad581614830565b60208082526024908201527f4f776e61626c653a2063616c6c6572206973206e6f742074686520746c64206f6040820152633bb732b960e11b606082015260800190565b8183823760009101908152919050565b600060208284031215614f6e57600080fd5b8151610ad581614c37565b6020808252601490820152732330b4b632b2103a379039b2b7321022ba3432b960611b604082015260600190565b634e487b7160e01b600052603260045260246000fd5b6000808335601e19843603018112614fd457600080fd5b8301803591506001600160401b03821115614fee57600080fd5b6020019150368190038213156148b657600080fd5b634e487b7160e01b600052601160045260246000fd5b808201808211156117c7576117c7615003565b60006001820161503e5761503e615003565b5060010190565b6020808252602c908201527f46756e6374696f6e206d7573742062652063616c6c6564207468726f7567682060408201526b19195b1959d85d1958d85b1b60a21b606082015260800190565b6020808252602c908201527f46756e6374696f6e206d7573742062652063616c6c6564207468726f7567682060408201526b6163746976652070726f787960a01b606082015260800190565b6020808252602c908201527f41636365737369626c653a2063616c6c6572206973206e6f742074686520706c60408201526b30ba3337b9369030b236b4b760a11b606082015260800190565b81835281816020850137506000828201602090810191909152601f909101601f19169091010190565b608081526000615166608083018789615129565b602083019590955250604081019290925260609091015292915050565b60006040828403121561519557600080fd5b604051604081018181106001600160401b03821117156151b7576151b7614a7e565b604052825181526020928301519281019290925250919050565b88815260c0602082015260006151eb60c08301898b615129565b6001600160a01b0388166040840152606083018790526080830186905282810360a084015261521b818587615129565b9b9a5050505050505050505050565b60006020828403121561523c57600080fd5b5051919050565b6020808252602b908201527f496e697469616c697a61626c653a20636f6e7472616374206973206e6f74206960408201526a6e697469616c697a696e6760a81b606082015260800190565b818103818111156117c7576117c7615003565b89815260e0602082015260006152bb60e083018a8c615129565b6001600160a01b0389166040840152606083018890526080830187905260a0830186905282810360c08401526152f2818587615129565b9c9b505050505050505050505050565b6000806040838503121561531557600080fd5b505080516020909101519092909150565b60006101008c83528060208401526153418184018c8e615129565b905060018060a01b038a1660408401528860608401528760808401528660a08401528560c084015282810360e084015261537c818587615129565b9d9c50505050505050505050505050565b8581526080602082015260006153a7608083018688615129565b604083019490945250606001529392505050565b8381526040602082015260006153d5604083018486615129565b95945050505050565b87815260a0602082015260006153f860a08301888a615129565b6001600160a01b038716604084015260608301869052828103608084015261120e818587615129565b60005b8381101561543c578181015183820152602001615424565b50506000910152565b60006020828403121561545757600080fd5b81516001600160401b0381111561546d57600080fd5b8201601f8101841361547e57600080fd5b805161548c614b4382614ac4565b8181528560208385010111156154a157600080fd5b6153d5826020830160208601615421565b81838237601760f91b9101908152600101919050565b600083516154da818460208801615421565b8351908301906154ee818360208801615421565b01949350505050565b6000815180845261550f816020860160208601615421565b601f01601f19169290920160200192915050565b6001600160a01b038581168252848116602083015283166040820152608060608201819052600090611c36908301846154f7565b6001600160a01b0386811682528581166020830152841660408201526060810183905260a060808201819052600090615592908301846154f7565b979650505050505050565b600082516155af818460208701615421565b9190910192915050565b602081526000610ad560208301846154f756fe360894a13ba1a3210667c828492db98dca3e2076cc3735a920a3ca505d382bbc416464726573733a206c6f772d6c6576656c2064656c65676174652063616c6c206661696c6564a264697066735822122036a9e82a8350edd726ee0c382bf8ea6d63ca5938eb2895ed29317f65729c1bbe64736f6c63430008120033",
  "linkReferences": {},
  "deployedLinkReferences": {}
}